{
  "contractName": "Item",
  "abi": [
    {
      "inputs": [
        {
          "internalType": "contract ItemManager",
          "name": "_parent",
          "type": "address"
        },
        {
          "internalType": "uint256",
          "name": "_price",
          "type": "uint256"
        },
        {
          "internalType": "uint256",
          "name": "_index",
          "type": "uint256"
        }
      ],
      "stateMutability": "nonpayable",
      "type": "constructor"
    },
    {
      "inputs": [],
      "name": "ItemPrice",
      "outputs": [
        {
          "internalType": "uint256",
          "name": "",
          "type": "uint256"
        }
      ],
      "stateMutability": "view",
      "type": "function"
    },
    {
      "inputs": [],
      "name": "index",
      "outputs": [
        {
          "internalType": "uint256",
          "name": "",
          "type": "uint256"
        }
      ],
      "stateMutability": "view",
      "type": "function"
    },
    {
      "inputs": [],
      "name": "isPaid",
      "outputs": [
        {
          "internalType": "uint256",
          "name": "",
          "type": "uint256"
        }
      ],
      "stateMutability": "view",
      "type": "function"
    },
    {
      "stateMutability": "payable",
      "type": "receive"
    }
  ],
  "bytecode": "0x608060405234801561001057600080fd5b506040516104a13803806104a18339818101604052606081101561003357600080fd5b8101908080519060200190929190805190602001909291908051906020019092919050505082600360006101000a81548173ffffffffffffffffffffffffffffffffffffffff021916908373ffffffffffffffffffffffffffffffffffffffff16021790555081600181905550806000819055505050506103e8806100b96000396000f3fe6080604052600436106100385760003560e01c8063209ebc08146102fb5780632986c0e5146103265780634ba9d38214610351576102f6565b366102f65734600154146100b4576040517f08c379a000000000000000000000000000000000000000000000000000000000815260040180806020018281038252600e8152602001807f6e6f742066756c6c79207061696400000000000000000000000000000000000081525060200191505060405180910390fd5b60006002541461012c576040517f08c379a00000000000000000000000000000000000000000000000000000000081526004018080602001828103825260108152602001807f74686520616c726561647920706169640000000000000000000000000000000081525060200191505060405180910390fd5b346002819055506000600360009054906101000a900473ffffffffffffffffffffffffffffffffffffffff1673ffffffffffffffffffffffffffffffffffffffff1634600054604051602401808281526020019150506040516020818303038152906040527f800fb83f000000000000000000000000000000000000000000000000000000007bffffffffffffffffffffffffffffffffffffffffffffffffffffffff19166020820180517bffffffffffffffffffffffffffffffffffffffffffffffffffffffff83818316178352505050506040518082805190602001908083835b60208310610232578051825260208201915060208101905060208303925061020f565b6001836020036101000a03801982511681845116808217855250505050505090500191505060006040518083038185875af1925050503d8060008114610294576040519150601f19603f3d011682016040523d82523d6000602084013e610299565b606091505b50509050806102f3576040517f08c379a000000000000000000000000000000000000000000000000000000000815260040180806020018281038252602481526020018061038f6024913960400191505060405180910390fd5b50005b600080fd5b34801561030757600080fd5b5061031061037c565b6040518082815260200191505060405180910390f35b34801561033257600080fd5b5061033b610382565b6040518082815260200191505060405180910390f35b34801561035d57600080fd5b50610366610388565b6040518082815260200191505060405180910390f35b60025481565b60005481565b6001548156fe746865207472616e73616374696f6e2069732066616c6964202c69732063616e73656c64a264697066735822122099827b0e0d0a5f075b2547d958813eebcd98f331f172030177879bab8e7bd0e964736f6c63430006040033",
  "source": "pragma solidity ^0.6.4;\r\n\r\nimport \"./ItemManager.sol\";\r\n\r\ncontract Item {\r\n    uint public index;\r\n    uint public ItemPrice;\r\n    uint public isPaid;\r\n    \r\n    ItemManager parentContract;\r\n    \r\n    \r\n    constructor(ItemManager _parent, uint _price, uint _index) public {\r\n        parentContract = _parent;\r\n        ItemPrice = _price;\r\n        index = _index;\r\n    }\r\n    \r\n    receive() external payable {\r\n        require(ItemPrice == msg.value, \"not fully paid\");\r\n        require(isPaid == 0, \"the already paid\");\r\n        isPaid = msg.value;\r\n        \r\n        (bool sucsses, ) = address(parentContract).call.value(msg.value)(abi.encodeWithSignature(\"triggerPayment(uint256)\", index));\r\n        \r\n        require(sucsses, \"the transaction is falid ,is canseld\");\r\n \r\n    }\r\n    \r\n    \r\n    \r\n    \r\n}",
  "sourcePath": "E:\\blockchainDeveloper\\resoursesFromCourse\\blockchainDeveloperProject itemManager\\contracts\\Item.sol",
  "compiler": {
    "name": "solc",
    "version": "0.6.4+commit.1dca32f3.Emscripten.clang"
  },
  "schemaVersion": "3.2.0",
  "updatedAt": "2020-06-16T00:30:09.360Z",
  "devdoc": {
    "methods": {}
  },
  "userdoc": {
    "methods": {}
  }
}