{
  "contractName": "ItemManager",
  "abi": [
    {
      "anonymous": false,
      "inputs": [
        {
          "indexed": true,
          "internalType": "string",
          "name": "_identifier",
          "type": "string"
        },
        {
          "indexed": true,
          "internalType": "enum ItemManager.supplyChainSteps",
          "name": "_state",
          "type": "uint8"
        },
        {
          "indexed": true,
          "internalType": "address",
          "name": "_item",
          "type": "address"
        },
        {
          "indexed": false,
          "internalType": "uint256",
          "name": "index",
          "type": "uint256"
        }
      ],
      "name": "supplyChainStep",
      "type": "event"
    },
    {
      "inputs": [],
      "name": "isOwnar",
      "outputs": [
        {
          "internalType": "bool",
          "name": "",
          "type": "bool"
        }
      ],
      "stateMutability": "view",
      "type": "function",
      "constant": true
    },
    {
      "inputs": [
        {
          "internalType": "uint256",
          "name": "",
          "type": "uint256"
        }
      ],
      "name": "items",
      "outputs": [
        {
          "internalType": "contract Item",
          "name": "_item",
          "type": "address"
        },
        {
          "internalType": "string",
          "name": "_identifier",
          "type": "string"
        },
        {
          "internalType": "enum ItemManager.supplyChainSteps",
          "name": "_state",
          "type": "uint8"
        }
      ],
      "stateMutability": "view",
      "type": "function",
      "constant": true
    },
    {
      "inputs": [
        {
          "internalType": "string",
          "name": "_identifier",
          "type": "string"
        },
        {
          "internalType": "uint256",
          "name": "_price",
          "type": "uint256"
        }
      ],
      "name": "createItem",
      "outputs": [],
      "stateMutability": "nonpayable",
      "type": "function"
    },
    {
      "inputs": [
        {
          "internalType": "uint256",
          "name": "_index",
          "type": "uint256"
        }
      ],
      "name": "triggerPayment",
      "outputs": [],
      "stateMutability": "payable",
      "type": "function",
      "payable": true
    },
    {
      "inputs": [
        {
          "internalType": "uint256",
          "name": "_index",
          "type": "uint256"
        }
      ],
      "name": "triggerDelivered",
      "outputs": [],
      "stateMutability": "nonpayable",
      "type": "function"
    },
    {
      "inputs": [],
      "name": "getNumberOfItems",
      "outputs": [
        {
          "internalType": "uint256",
          "name": "",
          "type": "uint256"
        }
      ],
      "stateMutability": "view",
      "type": "function",
      "constant": true
    }
  ],
  "bytecode": "0x6080604052336000806101000a81548173ffffffffffffffffffffffffffffffffffffffff021916908373ffffffffffffffffffffffffffffffffffffffff160217905550611281806100536000396000f3fe6080604052600436106100555760003560e01c80630526a22e1461005a578063730ef26914610089578063800fb83f146100b45780638c551742146100e2578063bfb231d2146101b4578063c2601eb9146102b0575b600080fd5b34801561006657600080fd5b5061006f6102eb565b604051808215151515815260200191505060405180910390f35b34801561009557600080fd5b5061009e610342565b6040518082815260200191505060405180910390f35b6100e0600480360360208110156100ca57600080fd5b810190808035906020019092919050505061034c565b005b3480156100ee57600080fd5b506101b26004803603604081101561010557600080fd5b810190808035906020019064010000000081111561012257600080fd5b82018360208201111561013457600080fd5b8035906020019184600183028401116401000000008311171561015657600080fd5b91908080601f016020809104026020016040519081016040528093929190818152602001838380828437600081840152601f19601f8201169050808301925050505050505091929192908035906020019092919050505061063e565b005b3480156101c057600080fd5b506101ed600480360360208110156101d757600080fd5b810190808035906020019092919050505061092d565b604051808473ffffffffffffffffffffffffffffffffffffffff1673ffffffffffffffffffffffffffffffffffffffff1681526020018060200183600281111561023357fe5b60ff168152602001828103825284818151815260200191508051906020019080838360005b83811015610273578082015181840152602081019050610258565b50505050905090810190601f1680156102a05780820380516001836020036101000a031916815260200191505b5094505050505060405180910390f35b3480156102bc57600080fd5b506102e9600480360360208110156102d357600080fd5b8101908080359060200190929190505050610a1c565b005b60003373ffffffffffffffffffffffffffffffffffffffff166000809054906101000a900473ffffffffffffffffffffffffffffffffffffffff1673ffffffffffffffffffffffffffffffffffffffff1614905090565b6000600154905090565b6000600281111561035957fe5b6002600083815260200190815260200160002060020160009054906101000a900460ff16600281111561038857fe5b146103fb576040517f08c379a00000000000000000000000000000000000000000000000000000000081526004018080602001828103825260158152602001807f746865206974656d206973206e6f74206578697374000000000000000000000081525060200191505060405180910390fd5b3373ffffffffffffffffffffffffffffffffffffffff166002600083815260200190815260200160002060000160009054906101000a900473ffffffffffffffffffffffffffffffffffffffff1673ffffffffffffffffffffffffffffffffffffffff16146104d2576040517f08c379a000000000000000000000000000000000000000000000000000000000815260040180806020018281038252601e8152602001807f6f6e6c79206974656d732063616e20757064617465207468656d73656c66000081525060200191505060405180910390fd5b60016002600083815260200190815260200160002060020160006101000a81548160ff0219169083600281111561050557fe5b02179055506002600082815260200190815260200160002060000160009054906101000a900473ffffffffffffffffffffffffffffffffffffffff1673ffffffffffffffffffffffffffffffffffffffff166002600083815260200190815260200160002060020160009054906101000a900460ff16600281111561058657fe5b6002600084815260200190815260200160002060010160405180828054600181600116156101000203166002900480156105f75780601f106105d55761010080835404028352918201916105f7565b820191906000526020600020905b8154815290600101906020018083116105e3575b505091505060405180910390207fc53f895ba08a89830de2f426643517695d37f59d0c6d4ded1a0b64dc2f45ff7f846040518082815260200191505060405180910390a450565b3373ffffffffffffffffffffffffffffffffffffffff166000809054906101000a900473ffffffffffffffffffffffffffffffffffffffff1673ffffffffffffffffffffffffffffffffffffffff1614610700576040517f08c379a00000000000000000000000000000000000000000000000000000000081526004018080602001828103825260158152602001807f796f7520617265206e6f7420746865206f776e6572000000000000000000000081525060200191505060405180910390fd5b6000308260015460405161071390610cf8565b808473ffffffffffffffffffffffffffffffffffffffff1673ffffffffffffffffffffffffffffffffffffffff1681526020018381526020018281526020019350505050604051809103906000f080158015610773573d6000803e3d6000fd5b5090508260026000600154815260200190815260200160002060010190805190602001906107a2929190610d05565b508060026000600154815260200190815260200160002060000160006101000a81548173ffffffffffffffffffffffffffffffffffffffff021916908373ffffffffffffffffffffffffffffffffffffffff160217905550600060026000600154815260200190815260200160002060020160006101000a81548160ff0219169083600281111561082f57fe5b02179055508073ffffffffffffffffffffffffffffffffffffffff1660026000600154815260200190815260200160002060020160009054906101000a900460ff16600281111561087c57fe5b846040518082805190602001908083835b602083106108b0578051825260208201915060208101905060208303925061088d565b6001836020036101000a03801982511681845116808217855250505050505090500191505060405180910390207fc53f895ba08a89830de2f426643517695d37f59d0c6d4ded1a0b64dc2f45ff7f6001546040518082815260200191505060405180910390a4600160008154809291906001019190505550505050565b60026020528060005260406000206000915090508060000160009054906101000a900473ffffffffffffffffffffffffffffffffffffffff1690806001018054600181600116156101000203166002900480601f0160208091040260200160405190810160405280929190818152602001828054600181600116156101000203166002900480156109ff5780601f106109d4576101008083540402835291602001916109ff565b820191906000526020600020905b8154815290600101906020018083116109e257829003601f168201915b5050505050908060020160009054906101000a900460ff16905083565b3373ffffffffffffffffffffffffffffffffffffffff166000809054906101000a900473ffffffffffffffffffffffffffffffffffffffff1673ffffffffffffffffffffffffffffffffffffffff1614610ade576040517f08c379a00000000000000000000000000000000000000000000000000000000081526004018080602001828103825260158152602001807f796f7520617265206e6f7420746865206f776e6572000000000000000000000081525060200191505060405180910390fd5b60016002811115610aeb57fe5b6002600083815260200190815260200160002060020160009054906101000a900460ff166002811115610b1a57fe5b14610b8d576040517f08c379a00000000000000000000000000000000000000000000000000000000081526004018080602001828103825260158152602001807f746865206974656d206d7573742062652070616964000000000000000000000081525060200191505060405180910390fd5b600280600083815260200190815260200160002060020160006101000a81548160ff02191690836002811115610bbf57fe5b02179055506002600082815260200190815260200160002060000160009054906101000a900473ffffffffffffffffffffffffffffffffffffffff1673ffffffffffffffffffffffffffffffffffffffff166002600083815260200190815260200160002060020160009054906101000a900460ff166002811115610c4057fe5b600260008481526020019081526020016000206001016040518082805460018160011615610100020316600290048015610cb15780601f10610c8f576101008083540402835291820191610cb1565b820191906000526020600020905b815481529060010190602001808311610c9d575b505091505060405180910390207fc53f895ba08a89830de2f426643517695d37f59d0c6d4ded1a0b64dc2f45ff7f846040518082815260200191505060405180910390a450565b6104a180610dab83390190565b828054600181600116156101000203166002900490600052602060002090601f016020900481019282601f10610d4657805160ff1916838001178555610d74565b82800160010185558215610d74579182015b82811115610d73578251825591602001919060010190610d58565b5b509050610d819190610d85565b5090565b610da791905b80821115610da3576000816000905550600101610d8b565b5090565b9056fe608060405234801561001057600080fd5b506040516104a13803806104a18339818101604052606081101561003357600080fd5b8101908080519060200190929190805190602001909291908051906020019092919050505082600360006101000a81548173ffffffffffffffffffffffffffffffffffffffff021916908373ffffffffffffffffffffffffffffffffffffffff16021790555081600181905550806000819055505050506103e8806100b96000396000f3fe6080604052600436106100385760003560e01c8063209ebc08146102fb5780632986c0e5146103265780634ba9d38214610351576102f6565b366102f65734600154146100b4576040517f08c379a000000000000000000000000000000000000000000000000000000000815260040180806020018281038252600e8152602001807f6e6f742066756c6c79207061696400000000000000000000000000000000000081525060200191505060405180910390fd5b60006002541461012c576040517f08c379a00000000000000000000000000000000000000000000000000000000081526004018080602001828103825260108152602001807f74686520616c726561647920706169640000000000000000000000000000000081525060200191505060405180910390fd5b346002819055506000600360009054906101000a900473ffffffffffffffffffffffffffffffffffffffff1673ffffffffffffffffffffffffffffffffffffffff1634600054604051602401808281526020019150506040516020818303038152906040527f800fb83f000000000000000000000000000000000000000000000000000000007bffffffffffffffffffffffffffffffffffffffffffffffffffffffff19166020820180517bffffffffffffffffffffffffffffffffffffffffffffffffffffffff83818316178352505050506040518082805190602001908083835b60208310610232578051825260208201915060208101905060208303925061020f565b6001836020036101000a03801982511681845116808217855250505050505090500191505060006040518083038185875af1925050503d8060008114610294576040519150601f19603f3d011682016040523d82523d6000602084013e610299565b606091505b50509050806102f3576040517f08c379a000000000000000000000000000000000000000000000000000000000815260040180806020018281038252602481526020018061038f6024913960400191505060405180910390fd5b50005b600080fd5b34801561030757600080fd5b5061031061037c565b6040518082815260200191505060405180910390f35b34801561033257600080fd5b5061033b610382565b6040518082815260200191505060405180910390f35b34801561035d57600080fd5b50610366610388565b6040518082815260200191505060405180910390f35b60025481565b60005481565b6001548156fe746865207472616e73616374696f6e2069732066616c6964202c69732063616e73656c64a264697066735822122099827b0e0d0a5f075b2547d958813eebcd98f331f172030177879bab8e7bd0e964736f6c63430006040033a2646970667358221220274f630cf6d892526192b54e8fbf0ea230b98d1702dae36197e6a3af6ed66e4064736f6c63430006040033",
  "source": "pragma solidity ^0.6.4;\r\n\r\nimport \"./Ownable.sol\";\r\n\r\nimport \"./Item.sol\";\r\n\r\ncontract ItemManager is Ownable{\r\n    enum supplyChainSteps{Created, Paid, Deliverd}\r\n    struct ItemStructure{\r\n        Item _item;\r\n        string _identifier;\r\n        ItemManager.supplyChainSteps _state;\r\n    }\r\n    uint index;\r\n    mapping (uint => ItemStructure) public items;\r\n    event supplyChainStep(string indexed  _identifier, supplyChainSteps indexed _state, address indexed _item , uint index);\r\n    function createItem(string memory _identifier, uint _price) public onlyOwner {\r\n        Item item = new Item(this, _price, index);\r\n        items[index]._identifier = _identifier;\r\n        items[index]._item = item;\r\n        items[index]._state = ItemManager.supplyChainSteps.Created;\r\n        emit supplyChainStep(_identifier, items[index]._state, address(item), index);\r\n         index++;\r\n    }\r\n    function triggerPayment(uint _index) public payable {\r\n        require(items[_index]._state == ItemManager.supplyChainSteps.Created, \"the item is not exist\");\r\n        require(address(items[_index]._item) == msg.sender, \"only items can update themself\");\r\n        items[_index]._state = ItemManager.supplyChainSteps.Paid;\r\n        emit supplyChainStep(items[_index]._identifier, items[_index]._state, address(items[_index]._item), _index);\r\n\r\n    }\r\n    function triggerDelivered(uint _index) public onlyOwner {\r\n        require(items[_index]._state == ItemManager.supplyChainSteps.Paid, \"the item must be paid\");\r\n        items[_index]._state = ItemManager.supplyChainSteps.Deliverd;\r\n        emit supplyChainStep(items[_index]._identifier, items[_index]._state, address(items[_index]._item), _index);\r\n    }\r\n    function getNumberOfItems() public view returns(uint){\r\n         return index;\r\n    }\r\n}",
  "sourcePath": "E:\\blockchainDeveloper\\resoursesFromCourse\\blockchainDeveloperProject itemManager\\contracts\\ItemManager.sol",
  "compiler": {
    "name": "solc",
    "version": "0.6.4+commit.1dca32f3.Emscripten.clang"
  },
  "schemaVersion": "3.2.0",
  "updatedAt": "2020-06-16T00:30:16.930Z",
  "networkType": "ethereum",
  "devdoc": {
    "methods": {}
  },
  "userdoc": {
    "methods": {}
  }
}