{
  "contractName": "Ownable",
  "abi": [
    {
      "inputs": [],
      "stateMutability": "nonpayable",
      "type": "constructor"
    },
    {
      "inputs": [],
      "name": "isOwnar",
      "outputs": [
        {
          "internalType": "bool",
          "name": "",
          "type": "bool"
        }
      ],
      "stateMutability": "view",
      "type": "function"
    }
  ],
  "bytecode": "0x6080604052348015600f57600080fd5b50336000806101000a81548173ffffffffffffffffffffffffffffffffffffffff021916908373ffffffffffffffffffffffffffffffffffffffff16021790555060da8061005e6000396000f3fe6080604052348015600f57600080fd5b506004361060285760003560e01c80630526a22e14602d575b600080fd5b6033604d565b604051808215151515815260200191505060405180910390f35b60003373ffffffffffffffffffffffffffffffffffffffff166000809054906101000a900473ffffffffffffffffffffffffffffffffffffffff1673ffffffffffffffffffffffffffffffffffffffff161490509056fea264697066735822122042e0e9af6b61b28da85d9cd880915a7f578accca004e5204cbb78fe0dfe2757764736f6c63430006040033",
  "source": "pragma solidity ^0.6.4;\r\n\r\n\r\ncontract Ownable {\r\n   address payable owner;\r\n   constructor () public {\r\n       owner = msg.sender;\r\n   }\r\n   modifier onlyOwner {\r\n      require(owner == msg.sender, \"you are not the owner\");\r\n       _;\r\n   }\r\n   function isOwnar() public view returns(bool) {\r\n       return owner == msg.sender;\r\n   }\r\n}",
  "sourcePath": "E:\\blockchainDeveloper\\resoursesFromCourse\\blockchainDeveloperProject itemManager\\contracts\\Ownable.sol",
  "compiler": {
    "name": "solc",
    "version": "0.6.4+commit.1dca32f3.Emscripten.clang"
  },
  "schemaVersion": "3.2.0",
  "updatedAt": "2020-06-16T00:30:09.377Z",
  "devdoc": {
    "methods": {}
  },
  "userdoc": {
    "methods": {}
  }
}